{
  "contractName": "Blockable",
  "abi": [
    {
      "inputs": [
        {
          "internalType": "uint256",
          "name": "_blocksPerEra",
          "type": "uint256"
        },
        {
          "internalType": "uint256",
          "name": "_eraMax",
          "type": "uint256"
        }
      ],
      "stateMutability": "nonpayable",
      "type": "constructor"
    },
    {
      "inputs": [],
      "name": "BLOCKS_PRECISION",
      "outputs": [
        {
          "internalType": "uint256",
          "name": "",
          "type": "uint256"
        }
      ],
      "stateMutability": "view",
      "type": "function"
    },
    {
      "inputs": [],
      "name": "blocksPerEra",
      "outputs": [
        {
          "internalType": "uint256",
          "name": "",
          "type": "uint256"
        }
      ],
      "stateMutability": "view",
      "type": "function"
    },
    {
      "inputs": [],
      "name": "deployedAt",
      "outputs": [
        {
          "internalType": "uint256",
          "name": "",
          "type": "uint256"
        }
      ],
      "stateMutability": "view",
      "type": "function"
    },
    {
      "inputs": [],
      "name": "eraMax",
      "outputs": [
        {
          "internalType": "uint256",
          "name": "",
          "type": "uint256"
        }
      ],
      "stateMutability": "view",
      "type": "function"
    },
    {
      "inputs": [
        {
          "internalType": "uint256",
          "name": "currentUserEra",
          "type": "uint256"
        }
      ],
      "name": "canApprove",
      "outputs": [
        {
          "internalType": "bool",
          "name": "",
          "type": "bool"
        }
      ],
      "stateMutability": "view",
      "type": "function"
    },
    {
      "inputs": [],
      "name": "currentContractEra",
      "outputs": [
        {
          "internalType": "uint256",
          "name": "",
          "type": "uint256"
        }
      ],
      "stateMutability": "view",
      "type": "function"
    },
    {
      "inputs": [
        {
          "internalType": "uint256",
          "name": "currentUserEra",
          "type": "uint256"
        }
      ],
      "name": "nextApproveIn",
      "outputs": [
        {
          "internalType": "int256",
          "name": "",
          "type": "int256"
        }
      ],
      "stateMutability": "view",
      "type": "function"
    },
    {
      "inputs": [
        {
          "internalType": "uint256",
          "name": "currentUserEra",
          "type": "uint256"
        }
      ],
      "name": "canApproveTimes",
      "outputs": [
        {
          "internalType": "uint256",
          "name": "",
          "type": "uint256"
        }
      ],
      "stateMutability": "view",
      "type": "function"
    }
  ],
  "bytecode": "0x608060405234801561001057600080fd5b5060405161058e38038061058e83398101604081905261002f91610041565b60009190915560025543600155610064565b60008060408385031215610053578182fd5b505080516020909101519092909150565b61051b806100736000396000f3fe608060405234801561001057600080fd5b50600436106100885760003560e01c8063ccf76e0d1161005b578063ccf76e0d146100cd578063eae4c19f146100e0578063ed0df79e146100e9578063fc3dad72146100f157610088565b80630fd07d981461008d5780632c39c100146100a9578063861b4ce1146100bc57806396831f6c146100c4575b600080fd5b61009660005481565b6040519081526020015b60405180910390f35b6100966100b7366004610218565b610114565b610096600581565b61009660025481565b6100966100db366004610218565b610169565b61009660015481565b610096610197565b6101046100ff366004610218565b6101c2565b60405190151581526020016100a0565b60008061012083610169565b90506000811315610135576000915050610164565b6000546101609061015a61014b6005600a6102ef565b610154856104b5565b906101e1565b906101f4565b9150505b919050565b6000438260005461017a91906103bd565b6001546101879190610230565b610191919061045f565b92915050565b60006101bd60016101b760005461015a6001546101b14390565b90610200565b9061020c565b905090565b60006101cc610197565b82108015610191575061019182600254101590565b60006101ed8284610440565b9392505050565b60006101ed8284610289565b60006101ed828461049e565b60006101ed8284610271565b600060208284031215610229578081fd5b5035919050565b600080821280156001600160ff1b0384900385131615610252576102526104cf565b600160ff1b839003841281161561026b5761026b6104cf565b50500190565b60008219821115610284576102846104cf565b500190565b6000826102a457634e487b7160e01b81526012600452602481fd5b500490565b80825b60018086116102bb57506102e6565b8187048211156102cd576102cd6104cf565b808616156102da57918102915b9490941c9380026102ac565b94509492505050565b60006101ed6000198484600082610308575060016101ed565b81610315575060006101ed565b816001811461032b576002811461033557610362565b60019150506101ed565b60ff841115610346576103466104cf565b6001841b91508482111561035c5761035c6104cf565b506101ed565b5060208310610133831016604e8410600b8410161715610395575081810a83811115610390576103906104cf565b6101ed565b6103a284848460016102a9565b8086048211156103b4576103b46104cf565b02949350505050565b60006001600160ff1b03818413828413808216868404861116156103e3576103e36104cf565b600160ff1b84871282811687830589121615610401576104016104cf565b85871292508782058712848416161561041c5761041c6104cf565b87850587128184161615610432576104326104cf565b505050929093029392505050565b600081600019048311821515161561045a5761045a6104cf565b500290565b60008083128015600160ff1b85018412161561047d5761047d6104cf565b6001600160ff1b0384018313811615610498576104986104cf565b50500390565b6000828210156104b0576104b06104cf565b500390565b6000600160ff1b8214156104cb576104cb6104cf565b0390565b634e487b7160e01b600052601160045260246000fdfea264697066735822122073dec551cdc98742311cd9f3ab069311901404e765bd9768f3eb2c7f764b9a7464736f6c63430008020033",
  "immutableReferences": {},
  "source": "// SPDX-License-Identifier: GPL-3.0\r\npragma solidity >=0.7.0 <=0.9.0;\r\n\r\nimport { SafeMath } from \"@openzeppelin/contracts/utils/math/SafeMath.sol\";\r\n\r\n/**\r\n * @author Sintrop\r\n * @title Blockable\r\n * @dev Blockable is a contract to manage blocks eras\r\n */\r\ncontract Blockable {\r\n  using SafeMath for uint256;\r\n\r\n  uint256 public constant BLOCKS_PRECISION = 5;\r\n\r\n  uint256 public blocksPerEra;\r\n  uint256 public deployedAt;\r\n  uint256 public eraMax;\r\n\r\n  constructor(uint256 _blocksPerEra, uint256 _eraMax) {\r\n    blocksPerEra = _blocksPerEra;\r\n    eraMax = _eraMax;\r\n    deployedAt = currentBlockNumber();\r\n  }\r\n\r\n  function canApprove(uint256 currentUserEra) public view returns (bool) {\r\n    return currentUserEra < currentContractEra() && validEra(currentUserEra);\r\n  }\r\n\r\n  function currentContractEra() public view returns (uint256) {\r\n    return currentBlockNumber().sub(deployedAt).div(blocksPerEra).add(1);\r\n  }\r\n\r\n  function nextApproveIn(uint256 currentUserEra) public view returns (int256) {\r\n    return int256(deployedAt) + (int256(blocksPerEra) * int256(currentUserEra)) - int256(currentBlockNumber());\r\n  }\r\n\r\n  function canApproveTimes(uint256 currentUserEra) public view returns (uint256) {\r\n    int256 approvesTimes = nextApproveIn(currentUserEra);\r\n\r\n    if (approvesTimes > 0) return 0;\r\n\r\n    return uint256(-approvesTimes).mul(10 ** BLOCKS_PRECISION).div(blocksPerEra);\r\n  }\r\n\r\n  // PRIVATE FUNCTIONS\r\n\r\n  function validEra(uint256 currentEra) internal view returns (bool) {\r\n    return currentEra <= eraMax;\r\n  }\r\n\r\n  function currentUserBlockNumber(uint256 currentUserEra) internal view returns (uint256) {\r\n    return deployedAt.add(blocksPerEra.mul(currentUserEra));\r\n  }\r\n\r\n  function currentBlockNumber() internal view returns (uint256) {\r\n    return block.number;\r\n  }\r\n}\r\n",
  "sourcePath": "D:\\Sintrop\\core-contracts\\contracts\\Blockable.sol",
  "compiler": {
    "name": "solc",
    "version": "0.8.2+commit.661d1103.Emscripten.clang"
  },
  "schemaVersion": "3.4.7",
  "updatedAt": "2023-10-11T11:42:35.573Z",
  "devdoc": {
    "author": "Sintrop",
    "details": "Blockable is a contract to manage blocks eras",
    "kind": "dev",
    "methods": {},
    "title": "Blockable",
    "version": 1
  },
  "userdoc": {
    "kind": "user",
    "methods": {},
    "version": 1
  }
}