{
  "contractName": "Poolable",
  "abi": [
    {
      "inputs": [
        {
          "internalType": "uint256",
          "name": "",
          "type": "uint256"
        },
        {
          "internalType": "address",
          "name": "",
          "type": "address"
        }
      ],
      "name": "eraLevels",
      "outputs": [
        {
          "internalType": "uint256",
          "name": "",
          "type": "uint256"
        }
      ],
      "stateMutability": "view",
      "type": "function"
    },
    {
      "inputs": [
        {
          "internalType": "uint256",
          "name": "",
          "type": "uint256"
        },
        {
          "internalType": "address",
          "name": "",
          "type": "address"
        }
      ],
      "name": "eraTokens",
      "outputs": [
        {
          "internalType": "uint256",
          "name": "",
          "type": "uint256"
        }
      ],
      "stateMutability": "view",
      "type": "function"
    },
    {
      "inputs": [
        {
          "internalType": "uint256",
          "name": "",
          "type": "uint256"
        }
      ],
      "name": "eras",
      "outputs": [
        {
          "internalType": "uint256",
          "name": "users",
          "type": "uint256"
        },
        {
          "internalType": "uint256",
          "name": "tokens",
          "type": "uint256"
        },
        {
          "internalType": "uint256",
          "name": "levels",
          "type": "uint256"
        }
      ],
      "stateMutability": "view",
      "type": "function"
    },
    {
      "inputs": [
        {
          "internalType": "uint256",
          "name": "era",
          "type": "uint256"
        }
      ],
      "name": "getEra",
      "outputs": [
        {
          "components": [
            {
              "internalType": "uint256",
              "name": "users",
              "type": "uint256"
            },
            {
              "internalType": "uint256",
              "name": "tokens",
              "type": "uint256"
            },
            {
              "internalType": "uint256",
              "name": "levels",
              "type": "uint256"
            }
          ],
          "internalType": "struct Poolable.Era",
          "name": "",
          "type": "tuple"
        }
      ],
      "stateMutability": "view",
      "type": "function"
    }
  ],
  "bytecode": "0x608060405234801561001057600080fd5b5061021c806100206000396000f3fe608060405234801561001057600080fd5b506004361061004c5760003560e01c80632eedcb1814610051578063720a70bd1461008b57806388b3acae146100d5578063ff39043c1461010e575b600080fd5b61006461005f366004610194565b610139565b60408051825181526020808401519082015291810151908201526060015b60405180910390f35b6100ba610099366004610194565b60006020819052908152604090208054600182015460029092015490919083565b60408051938452602084019290925290820152606001610082565b6101006100e33660046101ac565b600160209081526000928352604080842090915290825290205481565b604051908152602001610082565b61010061011c3660046101ac565b600260209081526000928352604080842090915290825290205481565b61015d60405180606001604052806000815260200160008152602001600081525090565b5060009081526020818152604091829020825160608101845281548152600182015492810192909252600201549181019190915290565b6000602082840312156101a5578081fd5b5035919050565b600080604083850312156101be578081fd5b8235915060208301356001600160a01b03811681146101db578182fd5b80915050925092905056fea2646970667358221220335d85c60e271030228de8194a6f8c66fe9e5605665837839e543ac7255cc35564736f6c63430008020033",
  "immutableReferences": {},
  "source": "// SPDX-License-Identifier: GPL-3.0\r\npragma solidity >=0.7.0 <=0.9.0;\r\n\r\nimport { SafeMath } from \"@openzeppelin/contracts/utils/math/SafeMath.sol\";\r\n\r\ncontract Poolable {\r\n  using SafeMath for uint256;\r\n\r\n  struct Era {\r\n    uint256 users;\r\n    uint256 tokens;\r\n    uint256 levels;\r\n  }\r\n\r\n  mapping(uint256 => Era) public eras;\r\n  mapping(uint256 => mapping(address => uint256)) public eraLevels;\r\n  mapping(uint256 => mapping(address => uint256)) public eraTokens;\r\n\r\n  function getEra(uint256 era) external view returns (Era memory) {\r\n    return eras[era];\r\n  }\r\n\r\n  function addPoolLevel(address to, uint256 currentLevel, uint256 addLevel, uint256 era) internal {\r\n    uint256 levels = eraLevels[era][to] > 0 ? addLevel : currentLevel;\r\n\r\n    eras[era].levels = eras[era].levels.add(levels);\r\n    eraLevels[era][to] += levels;\r\n  }\r\n\r\n  function removePoolLevel(address to, uint256 era, uint256 levels) internal {\r\n    require(eraLevels[era][to] >= levels, \"Not enough levels to remove\");\r\n\r\n    eras[era].levels = eras[era].levels.sub(levels);\r\n    eraLevels[era][to] = eraLevels[era][to].sub(levels);\r\n  }\r\n\r\n  function resetLevelsFromEra(address to, uint256 era, uint256 removeSomeLevels) internal {\r\n    uint256 currentLevels = eraLevels[era][to];\r\n\r\n    if (currentLevels == 0) return;\r\n\r\n    uint256 levels = removeSomeLevels > 0 ? removeSomeLevels : currentLevels;\r\n\r\n    removePoolLevel(to, era, levels);\r\n  }\r\n\r\n  function tokens(uint256 era, address to, uint256 tokensPerEra) internal view returns (uint256) {\r\n    uint256 levels = eras[era].levels;\r\n    uint256 levelTo = eraLevels[era][to];\r\n\r\n    if (levelTo == 0) return 0;\r\n\r\n    return levelTo.mul(tokensPerEra).div(levels);\r\n  }\r\n}\r\n",
  "sourcePath": "D:\\Sintrop\\core-contracts\\contracts\\Poolable.sol",
  "compiler": {
    "name": "solc",
    "version": "0.8.2+commit.661d1103.Emscripten.clang"
  },
  "schemaVersion": "3.4.7",
  "updatedAt": "2023-10-11T11:42:35.624Z",
  "devdoc": {
    "kind": "dev",
    "methods": {},
    "version": 1
  },
  "userdoc": {
    "kind": "user",
    "methods": {},
    "version": 1
  }
}