{
  "contractName": "Callable",
  "abi": [
    {
      "anonymous": false,
      "inputs": [
        {
          "indexed": true,
          "internalType": "address",
          "name": "previousOwner",
          "type": "address"
        },
        {
          "indexed": true,
          "internalType": "address",
          "name": "newOwner",
          "type": "address"
        }
      ],
      "name": "OwnershipTransferred",
      "type": "event"
    },
    {
      "inputs": [
        {
          "internalType": "address",
          "name": "",
          "type": "address"
        }
      ],
      "name": "allowedCallers",
      "outputs": [
        {
          "internalType": "bool",
          "name": "",
          "type": "bool"
        }
      ],
      "stateMutability": "view",
      "type": "function"
    },
    {
      "inputs": [],
      "name": "owner",
      "outputs": [
        {
          "internalType": "address",
          "name": "",
          "type": "address"
        }
      ],
      "stateMutability": "view",
      "type": "function"
    },
    {
      "inputs": [],
      "name": "renounceOwnership",
      "outputs": [],
      "stateMutability": "nonpayable",
      "type": "function"
    },
    {
      "inputs": [
        {
          "internalType": "address",
          "name": "newOwner",
          "type": "address"
        }
      ],
      "name": "transferOwnership",
      "outputs": [],
      "stateMutability": "nonpayable",
      "type": "function"
    },
    {
      "inputs": [
        {
          "internalType": "address",
          "name": "allowed",
          "type": "address"
        }
      ],
      "name": "newAllowedCaller",
      "outputs": [],
      "stateMutability": "nonpayable",
      "type": "function"
    },
    {
      "inputs": [
        {
          "internalType": "address",
          "name": "caller",
          "type": "address"
        }
      ],
      "name": "isAllowedCaller",
      "outputs": [
        {
          "internalType": "bool",
          "name": "",
          "type": "bool"
        }
      ],
      "stateMutability": "view",
      "type": "function"
    }
  ],
  "bytecode": "0x608060405234801561001057600080fd5b5061001a3361001f565b61006f565b600080546001600160a01b038381166001600160a01b0319831681178455604051919092169283917f8be0079c531659141344cd1fd0a4f28419497f9722a3daafe3b4186f6b6457e09190a35050565b6102e58061007e6000396000f3fe608060405234801561001057600080fd5b50600436106100625760003560e01c8063715018a6146100675780637b334154146100715780638da5cb5b146100a95780638f93716f146100c4578063a6801258146100d7578063f2fde38b14610103575b600080fd5b61006f610116565b005b61009461007f366004610281565b60016020526000908152604090205460ff1681565b60405190151581526020015b60405180910390f35b6000546040516001600160a01b0390911681526020016100a0565b61006f6100d2366004610281565b61012a565b6100946100e5366004610281565b6001600160a01b031660009081526001602052604090205460ff1690565b61006f610111366004610281565b610159565b61011e6101d7565b6101286000610231565b565b6101326101d7565b6001600160a01b03166000908152600160208190526040909120805460ff19169091179055565b6101616101d7565b6001600160a01b0381166101cb5760405162461bcd60e51b815260206004820152602660248201527f4f776e61626c653a206e6577206f776e657220697320746865207a65726f206160448201526564647265737360d01b60648201526084015b60405180910390fd5b6101d481610231565b50565b6000546001600160a01b031633146101285760405162461bcd60e51b815260206004820181905260248201527f4f776e61626c653a2063616c6c6572206973206e6f7420746865206f776e657260448201526064016101c2565b600080546001600160a01b038381166001600160a01b0319831681178455604051919092169283917f8be0079c531659141344cd1fd0a4f28419497f9722a3daafe3b4186f6b6457e09190a35050565b600060208284031215610292578081fd5b81356001600160a01b03811681146102a8578182fd5b939250505056fea2646970667358221220254aaebcbd42342104111a3bc580c90e37bf3794cc7df7ea32e25bd5cca88bae64736f6c63430008020033",
  "immutableReferences": {},
  "source": "// SPDX-License-Identifier: GPL-3.0\r\npragma solidity >=0.7.0 <=0.9.0;\r\n\r\nimport { Ownable } from \"@openzeppelin/contracts/access/Ownable.sol\";\r\n\r\ncontract Callable is Ownable {\r\n  mapping(address => bool) public allowedCallers;\r\n\r\n  function newAllowedCaller(address allowed) public onlyOwner {\r\n    allowedCallers[allowed] = true;\r\n  }\r\n\r\n  function isAllowedCaller(address caller) public view returns (bool) {\r\n    return allowedCallers[caller];\r\n  }\r\n\r\n  modifier mustBeAllowedCaller() {\r\n    require(allowedCallers[msg.sender], \"Not allowed caller\");\r\n    _;\r\n  }\r\n}\r\n",
  "sourcePath": "D:\\Sintrop\\core-contracts\\contracts\\Callable.sol",
  "compiler": {
    "name": "solc",
    "version": "0.8.2+commit.661d1103.Emscripten.clang"
  },
  "schemaVersion": "3.4.7",
  "updatedAt": "2023-10-11T11:42:35.577Z",
  "devdoc": {
    "kind": "dev",
    "methods": {
      "owner()": {
        "details": "Returns the address of the current owner."
      },
      "renounceOwnership()": {
        "details": "Leaves the contract without owner. It will not be possible to call `onlyOwner` functions anymore. Can only be called by the current owner. NOTE: Renouncing ownership will leave the contract without an owner, thereby removing any functionality that is only available to the owner."
      },
      "transferOwnership(address)": {
        "details": "Transfers ownership of the contract to a new account (`newOwner`). Can only be called by the current owner."
      }
    },
    "version": 1
  },
  "userdoc": {
    "kind": "user",
    "methods": {},
    "version": 1
  }
}