{
  "contractName": "Migrations",
  "abi": [
    {
      "inputs": [],
      "name": "lastCompletedMigration",
      "outputs": [
        {
          "internalType": "uint256",
          "name": "",
          "type": "uint256"
        }
      ],
      "stateMutability": "view",
      "type": "function",
      "constant": true
    },
    {
      "inputs": [],
      "name": "owner",
      "outputs": [
        {
          "internalType": "address",
          "name": "",
          "type": "address"
        }
      ],
      "stateMutability": "view",
      "type": "function",
      "constant": true
    },
    {
      "inputs": [
        {
          "internalType": "uint256",
          "name": "completed",
          "type": "uint256"
        }
      ],
      "name": "setCompleted",
      "outputs": [],
      "stateMutability": "nonpayable",
      "type": "function"
    }
  ],
  "bytecode": "0x6080604052600080546001600160a01b0319163317905534801561002257600080fd5b50610153806100326000396000f3fe608060405234801561001057600080fd5b50600436106100415760003560e01c80638da5cb5b14610046578063fbdbad3c14610076578063fdacd5761461008d575b600080fd5b600054610059906001600160a01b031681565b6040516001600160a01b0390911681526020015b60405180910390f35b61007f60015481565b60405190815260200161006d565b6100a061009b366004610105565b6100a2565b005b6000546001600160a01b031633146101005760405162461bcd60e51b815260206004820152601760248201527f5265737472696374656420746f20746865206f776e6572000000000000000000604482015260640160405180910390fd5b600155565b600060208284031215610116578081fd5b503591905056fea26469706673582212207f4878d204b26abdfcd0b5e5b2c474d3edf023fcb93e63d431b37578657883be64736f6c63430008020033",
  "immutableReferences": {},
  "source": "// SPDX-License-Identifier: GPL-3.0\r\npragma solidity >=0.7.0 <=0.9.0;\r\n\r\ncontract Migrations {\r\n  address public owner = msg.sender;\r\n  uint256 public lastCompletedMigration;\r\n\r\n  modifier restricted() {\r\n    require(msg.sender == owner, \"Restricted to the owner\");\r\n    _;\r\n  }\r\n\r\n  function setCompleted(uint256 completed) public restricted {\r\n    lastCompletedMigration = completed;\r\n  }\r\n}\r\n",
  "sourcePath": "D:\\Sintrop\\core-contracts\\contracts\\Migrations.sol",
  "compiler": {
    "name": "solc",
    "version": "0.8.2+commit.661d1103.Emscripten.clang"
  },
  "schemaVersion": "3.4.7",
  "updatedAt": "2023-10-11T11:44:22.048Z",
  "networkType": "ethereum",
  "devdoc": {
    "kind": "dev",
    "methods": {},
    "version": 1
  },
  "userdoc": {
    "kind": "user",
    "methods": {},
    "version": 1
  }
}